:100000000C945C020C94A0020C94A0020C94A0022C
:100010000C94A0020C94A0020C94A0020C94A002D8
:100020000C94A0020C94A0020C94230D0C94F50DDA
:100030000C943C1C0C94A0020C94A0020C94A00202
:100040000C94A0020C94A0020C94A0020C94A002A8
:100050000C94A0020C94A31C0C94A0020C94A0027B
:100060000C94A0020C94A0020C94A0020C94A00288
:100070000C94A0020C94A0020C94A0020C94A00278
:100080000C94A0020C94A0020C94A0020C94A00268
:100090000C94A0020C94A0020C94A0020C94A00258
:1000A0000C94A0020C94A0020C94A0025A0E7C0E98
:1000B000670F7C0E670FBE0EE10E670F360F490FFC
:1000C000201220124F124F129612B8121014101450
:1000D000C31210146A136A130114101410140A14B2
:1000E00077137713771377137713771377137713C0
:1000F00077137713771377137713771377137713B0
:10010000891396139D13A413AE130000F0A1F0A25F
:1001100029002B0039752D72507100001E0014004B
:1001200004001D002F413E711F001A0016001B0025
:1001300030424C002000080007000600E2002C00BE
:100140002100150009001900E3003D0022001700FE
:100150000A0005000000310035414A0000002F026E
:100160000000380034004D000000300200002E0076
:1001700023001C000B00110000002D0024001800BB
:100180000D001000C1003F0025000C000E003600DD
:10019000C2002800260012000F00370050002A423B
:1001A00027001300330052005100407128004B001B
:1001B0004E002E724F000000C1000100010001003E
:1001C000010000003A001E0220022202010001008C
:1001D0003B001F0221022302010001003C002F020C
:1001E00026022F00010001003D00300227023000EE
:1001F000010001003E00310235003502000001001F
:1002000001000100000001000000010001000100E8
:1002100000000100000001003F00520051002402D4
:10022000000001004000240021001E000100010028
:100230004100250022001F00370001004200260077
:100240002300200027000100430025022E02310078
:100250002E000100440045000100010001000000E3
:10026000A8000100010001000100000001000100E0
:10027000010001000100010001000100F200010085
:10028000010001000100F000F1000100F400010094
:1002900001000100F3000100F50001000100010070
:1002A00001000100000000500100010000000100F9
:1002B0000000010001000100000001000000010039
:1002C0000100010001000100000001000100010027
:1002D0005000010001000100010052005100010026
:1002E0000100B600010001004F000100AC00010058
:1002F000010001000100A900AA000100AE000100F8
:1003000001000100AB000000160345007200670009
:100310006F0044006F007800200045005A00000084
:1003200016034500720067006F0044006F007800FC
:10033000200045005A0000000403090409026D0072
:10034000040100A0FA0904000001030101000921D1
:10035000110100012240000705810308000A090479
:1003600001000103010200092111010001224D00D9
:100370000705820308000A090402000103000000C7
:100380000921110100012236000705830308000A34
:1003900009040300010300000009211101000122EA
:1003A000390007058403100001120110010000004C
:1003B00008EDFE071301000102000105010906A175
:1003C00001050719E029E715002501950875018148
:1003D0000205081901290595057501910295017518
:1003E00003910105071900297715002501957875F6
:1003F000018102C005010980A101850216010026C4
:10040000B7001A01002AB700751095018100C005D8
:100410000C0901A1018503160100269C021A0100A6
:100420002A9C02751095018100C005010902A101F5
:100430000901A100050919012905150025019505E6
:1004400075018102950175038101050109300931AA
:100450001581257F95027508810609381581257F4C
:10046000950175088106050C0A38021581257F95CE
:100470000175088106C0C005010906A1010507191B
:10048000E029E715002501950875018102950175A0
:100490000881010508190129059505750191029545
:1004A00001750391010507190029FF150026FF00BA
:1004B000950675088100C00011241FBECFEFDAE059
:1004C000DEBFCDBF04B603FE24C08091FE01909133
:1004D000FF01A0910002B09101028730904BA7402C
:1004E000B04BB9F41092FE011092FF01109200027D
:1004F0001092010214BE84B7877F84BF88E10FB6D3
:10050000F89480936000109260000FBEE0E0FFE37B
:10051000099511E0A0E0B1E0E2EBF8E402C005903B
:100520000D92A433B107D9F711E0A4E3B1E001C003
:100530001D92AE3FB107E1F70E946B0A0C9457245D
:100540000C94000061110BC0FC018281882321F012
:1005500085EE0E94C11003C085EE0E94891180E0E3
:1005600090E0089508956091BD017091BE01809161
:10057000BF019091C0010E94AA1B56985E982598D1
:100580002D9826982E9827982F98813029F0823020
:1005900029F4269A2E9A02C0259A2D9A0E94A20F1B
:1005A00081FF02C0279A2F9A08950C94B30256989F
:1005B0005E9825982D9826982E9827982F988FEF3B
:1005C00090E0909389008093880090938B008093B3
:1005D0008A0090938D0080938C00259A2D9A2FEF9E
:1005E00080E792E0215080409040E1F700C0000099
:1005F000269A2E9A2FEF80E792E02150804090407B
:10060000E1F700C00000279A2F9A2FEF80E792E0D1
:10061000215080409040E1F700C0000025982D98BF
:100620002FEF80E792E0215080409040E1F700C03A
:10063000000026982E982FEF80E792E0215080400E
:100640009040E1F700C0000027982F9856985E98D8
:1006500025982D9826982E9827982F98089589EAFE
:100660008093800089E08093810024982C983F98A3
:100670008AB18F748AB96E98479A8BB1806B8BB9A7
:10068000769A0E94D7020C94B20280E28093000115
:100690008091340181110EC00E94940381E0809307
:1006A00034012FEF83ED90E3215080409040E1F73B
:1006B00000C0000080E40E949A0380930001811131
:1006C0002EC00E94C40380930001811128C00E94A3
:1006D000C40380930001811122C08FE30E94C403F0
:1006E0008093000181111BC00E94BC0380E40E9422
:1006F0009A0380930001811112C08CE00E94C40310
:100700008093000181110BC00E94C40380930001FB
:10071000811105C08FE30E94C403809300010E94F1
:10072000BC038091000108951092B9008AE0809383
:10073000B800089594EA9093BC009091BC0097FF94
:10074000FCCF9091B900987F983021F0903111F052
:1007500081E008958093BB0084E88093BC00809181
:10076000BC0087FFFCCF8091B900887F883111F0F1
:10077000803471F780E0089584E98093BC00809113
:10078000BC0084FDFCCF08958093BB0084E8809377
:10079000BC008091BC0087FFFCCF9091B900987F8E
:1007A00081E0983209F480E0089584E88093BC00E9
:1007B0008091BC0087FFFCCF8091BB0008958091A1
:1007C0000001811115C080E40E949A03809300010A
:1007D00081110CC082E10E94C40380930001811149
:1007E00005C08FEF0E94C403809300010E94BC03E8
:1007F00084B1807F84B985B1807F85B98AB1837FD8
:100800008AB98BB1837F8BB93E98469808950E9430
:100810004503809300010E94DF0380B38C7080BB8E
:1008200081B3836F81BBE4E4F1E0A6E3B1E0119210
:100830001D9281E0E235F807D1F70C942F03BF92A7
:10084000CF92DF92EF92FF920F931F93CF93DF939C
:1008500080910001882379F0809135018F5F80932A
:100860003501811108C00E94450380930001811168
:1008700002C00E94D70206E311E0C0E0D0E0DD2410
:10088000D39482E0C82EEE24E394F12CC73000F517
:1008900080910001811162C080E40E949A038093DC
:1008A0000001811112C082E10E94C4038093000103
:1008B00081110BC0C7010C2E01C0880F0A94EAF702
:1008C00080950E94C403809300010E94BC0346C02F
:1008D000CA30A1F028F4C83059F0C93061F005C021
:1008E000CC3089F070F0CD3089F0209A289810C073
:1008F000219A29980DC0229A2A980AC0239A2B98E7
:1009000007C0529A01C0539A5B9802C03E9A46981B
:10091000E0EAEA95F1F78FB179995AC092E08170D7
:100920008D25892B7C9B02C090E001C094E0892B2F
:100930007D9B02C090E001C098E0892B7E9B02C0A5
:1009400090E001C090E1892B9FB19095991F992764
:10095000991F9295990F907E892B0FC0809100016D
:1009600081114BC080E40E949A0380930001882388
:1009700089F1B12C0E94BC038B2DF801908198174E
:1009800019F08083C09201010E94DF0321960F5F5E
:100990001F4FCE30D10509F079CF80910101882316
:1009A00071F1815080930101882339F08FE99FE034
:1009B0000197F1F700C0000022C0A4E4B1E0E6E333
:1009C000F1E081918D9391E0E434F907D1F717C0FC
:1009D00090E0A5CF83E10E94C403809300018111C0
:1009E000C8CF81E40E949A03809300018111C1CF96
:1009F0000E94D503B82EB094BDCF80E0BECF0E9438
:100A0000D50281E0DF91CF911F910F91FF90EF9080
:100A1000DF90CF90BF900895E82FF0E0EC5BFE4FA1
:100A20008081089508951F93CF93DF93C4E4D1E0AC
:100A300010E0899190E00E949E1B180F81E0C23562
:100A4000D807B9F7812FDF91CF911F91089581E0E9
:100A5000089581E008950C94290508950F931F933C
:100A6000CF93DF93EC0108811981C8010E94A71977
:100A7000B8010E94C3058C01BE010E942B0588238A
:100A800009F47AC08A818823C9F180915D018111BE
:100A90001EC0043180E5180789F50E942D0581E00C
:100AA00080935D010E946E1C90935C0180935B01BA
:100AB0001092540110925601109255011092580153
:100AC0001092570110925A011092590155C080910D
:100AD0005B0190915C010E947A1C883C910570F446
:100AE00080915401E82FF0E0EE0FFF1FEB5AFE4F0C
:100AF000118300838F5F809354013EC0043880E5EA
:100B0000180721F005381045A1F02AC08A818823F2
:100B100021F01092520182E012C0809152018111A5
:100B200006C086E20E94C11086E20E94891182E01E
:100B300014C08A81882331F01092530180E20E9410
:100B4000D8111AC080915301811106C087E20E941A
:100B5000C11087E20E94891180E20E94DF110CC05F
:100B600081E08093520180935301CE01DF91CF91B8
:100B70001F910F910C94270580E0DF91CF911F9179
:100B80000F910895089596E0799FF001112494E55E
:100B9000899FE00DF11D1124E60FF11DEE0FFF1FDF
:100BA000E05FFE4F859194910895880F991F8657B5
:100BB0009040FC01859194910895880F991F865F5C
:100BC0009E4FFC018591949108950F931F93CF93AD
:100BD000DF93EC01811520E3920740F5811530E2A7
:100BE000930708F0C4C08B3B910588F4883A9105BF
:100BF00008F06BC0853A910508F05CC0843091051F
:100C000008F056C08130910509F4C8C1C4C18F3FB6
:100C1000910511F008F04CC0803F910508F0A4C088
:100C2000805E9109089708F443C0B5C1C13080E5E2
:100C3000D80709F4A4C020F5C0312FE4D20770F41E
:100C4000C11530E4D30708F096C0C11581E3D80779
:100C500008F0A1C18E011127106CE1C1C115D0456A
:100C600009F099C10E947C143FEF84E39CE031506D
:100C700080409040E1F700C000000E94C81CCFC136
:100C8000C11527E5D20758F4C03131E5D30708F084
:100C90001EC1C43180E5D80708F477C07CC1CE01FD
:100CA00090578115904108F076C18E011F7071C177
:100CB0008E01B5C1853A910509F473C1863A910553
:100CC00009F472C103E810E4AAC1883A910509F455
:100CD0006EC1893A910509F46DC18A3A910509F40A
:100CE0006CC18B3A910509F46BC18C3A910509F4FA
:100CF0006AC18D3A910509F469C1803B910509F4F7
:100D000068C18E3A910509F467C18F3A910509F4DB
:100D100066C1813B910509F465C1823B910509F4E7
:100D200064C1833B910509F463C1843B910509F4D7
:100D300062C1853B910509F461C1863B910509F4C7
:100D400060C1873B910509F45FC1883B910509F4B7
:100D50005EC1893B910509F45DC18A3B910509F0AB
:100D60005CC10AE216E45BC18C01106558C19F703A
:100D70000E94DD0555C18E011F70106A50C180911F
:100D8000DF0181608093DF014AC10E946E1E8111E4
:100D900002C00E94541E0E948B1E90E09093FE01A0
:100DA0008093FD01C23020E5D20721F48091FD013E
:100DB000816086C0C43030E5D30721F48091FD0105
:100DC00082607EC0C63080E5D80721F48091FD01A5
:100DD000846076C0C83090E5D90719F48091FD0190
:100DE00027C0CA3020E5D20721F48091FD0180613F
:100DF00067C0CC3030E5D30721F48091FD018062DB
:100E00005FC0CE3080E5D80721F48091FD01806479
:100E100057C0C03190E5D90721F48091FD01806869
:100E20004FC0C23120E5D20729F48091FD018460D2
:100E3000886046C0C33030E5D30721F48091FD01BE
:100E40008E7F3EC0C53080E5D80721F48091FD013A
:100E50008D7F36C0C73090E5D90721F48091FD0120
:100E60008B7F2EC0C93020E5D20719F48091FD0197
:100E700026C0CB3030E5D30721F48091FD018F7E71
:100E80001FC0CD3080E5D80721F48091FD018F7D12
:100E900017C0CF3090E5D90721F48091FD018F7BF9
:100EA0000FC0C13120E5D20721F48091FD018F7779
:100EB00007C0C331D04531F48091FD018B7F877F1E
:100EC0008093FD018091FD010E948F1EA8C08D2F8F
:100ED00099278F70992781309105E9F48E0103706D
:100EE00011279C0102C0220F331F0A95E2F78901E6
:100EF0001C68CE01E4E0880F991FEA95E1F7882786
:100F00009370082B192BF3E0CC0FDD1FFA95E1F756
:100F1000C076DD272CC08230910529F41C2F0027D4
:100F2000016F106A7CC08330910561F4CE0183703B
:100F3000992701E010E002C0000F111F8A95E2F727
:100F40001C680EC084309105A9F4CE0183709927E6
:100F500001E010E002C0000F111F8A95E2F71A6845
:100F600063E0CC0FDD1F6A95E1F7C07ED7700C2BD4
:100F70001D2B55C08530910529F41C2F0027046FC7
:100F8000106A4DC0069709F04AC0CF71DD271C2FAB
:100F90000027106244C000E010E041C001E010E012
:100FA0003EC001E810E43BC002E810E438C002EEA5
:100FB00014E435C009EE14E432C00AEE14E42FC084
:100FC00005EB14E42CC006EB14E429C007EB14E491
:100FD00026C00CEC14E423C00DEC14E420C003E89C
:100FE00015E41DC00AE815E41AC002E915E417C0AB
:100FF00004E915E414C001E216E411C003E216E4AA
:101000000EC004E216E40BC005E216E408C006E2D6
:1010100016E405C007E216E402C000E014E4C801CB
:10102000DF91CF911F910F91089596E0799FF00184
:10103000112494E5899FE00DF11D1124E60FF11DA7
:10104000EE0FFF1FE05FFE4F85919491803E91056A
:10105000E0F4803C910558F58133910509F46FC0A7
:1010600048F48932910509F463C08A32910509F484
:101070006DC072C089339105E9F082389105D1F0D5
:101080008533910509F44DC067C0833E910581F118
:1010900038F4803E9105B9F0823E9105D9F05CC0EC
:1010A000863E910561F1873E9105A1F155C00E94F0
:1010B000D50508952091FD0120FD02C021FF4CC0FF
:1010C00080EE90E049C08091FD0180FFF9CF89E377
:1010D00090E042C08091FD0182FF0EC08091FD0131
:1010E00084FF03C080E090E037C083EE90E034C01E
:1010F0008091FD0182FFF2CF82EE90E02DC08091C1
:10110000FD0183FF0BC08091FD0184FDEBCF87EED5
:1011100090E022C08091FD0183FFF5CF86EE90E044
:101120001BC08091FD0185FF07C089E290E014C0DB
:101130008091FD0185FFF9CF85E390E00DC080919E
:10114000FD0186FF07C08AE290E006C08091FD01A4
:1011500086FFF9CF81E390E00E94E50508950895A8
:101160000C94AF0880916E010895CF93DF9300D067
:101170001F92CDB7DEB72091F401243019F523E09A
:1011800029839B838A832093E9008FEF9091E80065
:10119000815095FD06C095ED9A95F1F700008111FB
:1011A000F5CF8091E80085FF0DC040E050E063E09E
:1011B00070E0CE0101960E94160B8091E8008E77B8
:1011C0008093E8000F900F900F90DF91CF910895DA
:1011D000CF93DF9300D01F92CDB7DEB72091F401FB
:1011E000243021F522E029839B838A8383E0809346
:1011F000E9008FEF9091E800815095FD06C095EDD4
:101200009A95F1F700008111F5CF8091E80085FFF4
:101210000DC040E050E063E070E0CE0101960E9416
:10122000160B8091E8008E778093E8000F900F9066
:101230000F90DF91CF9108952091F4012430F1F4C3
:1012400022E02093E9002FEF3091E800215035FD96
:1012500006C035ED3A95F1F700002111F5CF209148
:10126000E80025FF0BC040E050E065E070E00E9420
:10127000160B8091E8008E778093E8000895CF9355
:10128000DF93EC018091F401843009F046C0909125
:101290000C019923D9F090910D019923B9F0809315
:1012A000E9008FEF9091E800815095FD06C095E12F
:1012B0009A95F1F700008111F5CF8091E80085FF44
:1012C0002CC040E050E060E170E017C081E0809306
:1012D000E9008FEF9091E800815095FD06C095EDF3
:1012E0009A95F1F700008111F5CF8091E80085FF14
:1012F00014C040E050E068E070E0CE010E94160BA0
:101300008091E8008E778093E80080E1FE01AEE5F1
:10131000B1E001900D928A95E1F7DF91CF910895A8
:101320008091F301811109C00E94A80C0E94050D53
:101330008091E20084608093E20008951092F301AE
:101340000895089508950C94361C42E061EC81E004
:101350000E94220C42E061EC82E00E94220C42E0FA
:1013600061EC83E00E94220C42E161EC84E00C9489
:10137000220C8091F601833009F455C030F481309D
:1013800071F0823009F48EC008958A3009F47AC071
:101390008B3009F460C0893009F09CC020C0809176
:1013A000F501813A09F096C08091E800877F80932B
:1013B000E8008091F9019091FA01892B21F060E019
:1013C00080E090E003C060E18EE591E070E00E9473
:1013D0005F0B8091E8008B778093E80008958091FF
:1013E000F501813209F076C08091F9019091FA01FE
:1013F000009719F0039709F06DC08091E800877F8E
:101400008093E8008091E80082FD05C08091F4019E
:101410008111F8CF5FC08091F10080936E018091BF
:10142000E8008B7753C08091F501813A09F052C0F2
:101430008091F9019091FA01892B09F04BC08091BC
:10144000E800877F8093E8008091E80080FFFCCF70
:1014500080910C0136C08091F5018132D9F58091DF
:10146000F9019091FA01892BA9F58091E800877F15
:101470008093E8000E94570C8091F70180930C0143
:101480000C947C148091F501813221F58091E80063
:10149000877F8093E8000E94570C8091F801809329
:1014A0006F0108958091F501813AA1F48091E800DF
:1014B000877F8093E8008091E80080FFFCCF8091D7
:1014C0006F018093F1008091E8008E778093E800AF
:1014D0000C94570C089584B7877F84BF88E10FB6BA
:1014E000F89480936000109260000FBE90E080E856
:1014F0000FB6F89480936100909361000FBE0E9434
:10150000F10F0E94A80C0E94050D8091E2008460FA
:101510008093E20078940E94800F0E94F30F82E093
:1015200091E00E949D0F8091F401853069F40E9442
:10153000FD1B8091F2018823B1F30E94281C8823AF
:1015400091F30E94000BEFCF0E94F90FECCF292FEF
:10155000332723303105A9F06CF42130310509F42B
:1015600042C02230310509F043C08DE690E02CE303
:1015700033E042C021323105C9F02232310519F180
:1015800037C099278130910541F08230910541F0B3
:10159000892B71F5E8E3F3E005C0E0E2F3E002C077
:1015A000E8E0F3E0849190E09F0126C0643000F50C
:1015B000E62FF0E0EE0FFF1FEE5DFE4F2081318140
:1015C00089E090E019C0643098F4E62FF0E0DF0184
:1015D000AA0FBB1FA65EBE4F2D913C91EA5EFE4F47
:1015E000808190E009C082E190E029EA33E004C004
:1015F00080E090E020E030E0FA013183208308951C
:1016000080E189BD82E189BD09B400FEFDCF8091F2
:10161000D8008F7D8093D8008091E0008260809315
:10162000E0008091E00081FDFCCF0895CF92DF9231
:10163000EF92FF920F931F93CF93DF937C018B0167
:10164000EA010E94780C811131C0209731F0888125
:101650009981081B190BE80EF91EC12CD12C01151C
:10166000110519F18091E80085FD14C08091E80012
:101670008E778093E800209741F0888199818C0DC6
:101680009D1D9983888385E011C00E94780C882372
:1016900031F30CC0F70181917F018093F10001507B
:1016A0001109FFEFCF1ADF0ADACF80E0DF91CF9187
:1016B0001F910F91FF90EF90DF90CF9008952091B0
:1016C000FB013091FC012617370748F061157105C1
:1016D00039F42091E8002E772093E80001C0B90189
:1016E000FC0120E061157105B9F18091F4018823B6
:1016F00009F440C0853009F43FC08091E80083FDC3
:101700003DC08091E80082FF06C08091E80082FF22
:1017100026C080E008958091E80080FFE3CF20910B
:10172000F3008091F20090E0922B6115710551F069
:101730008830910538F421912093F10061507109AE
:101740000196F3CF21E0089709F020E08091E800AE
:101750008E778093E800C6CF2111C7CFD6CF809176
:10176000F401882339F0853039F08091E80083FF57
:10177000CCCF04C082E0089583E0089581E008950D
:101780002091FB013091FC012617370748F06115C5
:10179000710539F42091E8002E772093E80001C00C
:1017A000B901FC0120E061157105C1F18091F401DE
:1017B000882309F441C0853009F440C08091E800D5
:1017C00083FD3EC08091E80082FF06C08091E80062
:1017D00082FF27C080E008958091E80080FFE3CF7A
:1017E0002091F3008091F20090E0922B6115710539
:1017F00059F08830910540F424912093F1003196FE
:10180000615071090196F2CF21E0089709F020E0BC
:101810008091E8008E778093E800C5CF2111C6CF74
:10182000D5CF8091F401882339F0853039F080914B
:10183000E80083FFCBCF04C082E0089583E00895E1
:1018400081E00895982F973058F59093E900981704
:1018500039F07091EC002091ED005091F00003C040
:10186000242F762F50E021FF19C03091EB003E7FEE
:101870003093EB003091ED003D7F3093ED003091DF
:10188000EB0031603093EB007093EC002093ED009F
:101890005093F0002091EE0027FF07C09F5FD3CF49
:1018A0008F708093E90081E0089580E00895809131
:1018B000F50187FD05C08091E80080FF0EC012C0D1
:1018C0008091E80082FD05C08091F4018111F8CF7C
:1018D00008958091E8008B7708C08091F401811110
:1018E000EACF08958091E8008E778093E80008950C
:1018F0008091E4009091E50045E62091EC0020FF06
:1019000021C02091E80020FD21C02091F401222374
:1019100089F0253089F02091EB0025FD0FC0209142
:10192000E4003091E5002817390739F3415041F0C0
:10193000C901E3CF82E0089583E0089581E008952E
:1019400084E008952091E80022FFDFCF80E0089531
:101950000E94160D0E941E0DE0EEF0E08081816075
:101960008083E8EDF0E080818F77808319BCA7ED5C
:10197000B0E08C918E7F8C9380818F7E80831092DB
:10198000F30108950F931F93CF93DF930E94160DD9
:101990000E941E0DC8EDD0E088818F7788838881F2
:1019A0008068888388818F7D888319BC1092F401B8
:1019B0001092F0011092F2011092F10100EE10E08D
:1019C000F80180818B7F808388818160888342E0F9
:1019D00060E080E00E94220CE1EEF0E080818E7FEA
:1019E0008083E2EEF0E08081816080838081886086
:1019F0008083F80180818E7F8083888180618883E5
:101A0000DF91CF911F910F910895E8EDF0E0808173
:101A10008F7E8083E7EDF0E080818160808384E0C9
:101A200082BF81E08093F3010C94C20CE8EDF0E0FA
:101A300080818E7F80831092E20008951092DA00F8
:101A40001092E10008951F920F920FB60F92112489
:101A50002F933F934F935F936F937F938F939F93B6
:101A6000AF93BF93EF93FF938091E10082FF0BC090
:101A70008091E20082FF07C08091E1008B7F80931C
:101A8000E1000E947F0F8091DA0080FF1FC08091EB
:101A9000D80080FF1BC08091DA008E7F8093DA002F
:101AA0008091D90080FF0DC080E189BD82E189BDB0
:101AB00009B400FEFDCF81E08093F4010E949009FB
:101AC00005C019BC1092F4010E949E098091E100AA
:101AD00080FF19C08091E20080FF15C08091E20074
:101AE0008E7F8093E2008091E20080618093E2002B
:101AF0008091D80080628093D80019BC85E08093E3
:101B0000F4010E94A2098091E10084FF30C080911D
:101B1000E20084FF2CC080E189BD82E189BD09B467
:101B200000FEFDCF8091D8008F7D8093D8008091FA
:101B3000E1008F7E8093E1008091E2008F7E8093B0
:101B4000E2008091E20081608093E2008091F001E8
:101B5000882311F084E007C08091E30087FF02C072
:101B600083E001C081E08093F4010E94A309809189
:101B7000E10083FF29C08091E20083FF25C08091AE
:101B8000E100877F8093E10082E08093F40110926E
:101B9000F0018091E1008E7F8093E1008091E2006E
:101BA0008E7F8093E2008091E20080618093E2006A
:101BB00042E060E080E00E94220C8091F0008860AA
:101BC0008093F0000E94A109FF91EF91BF91AF9126
:101BD0009F918F917F916F915F914F913F912F9145
:101BE0000F900FBE0F901F9018951F920F920FB677
:101BF0000F9211242F933F934F935F936F937F9393
:101C00008F939F93AF93BF93CF93EF93FF93C09125
:101C1000E900CF708091EC001092E9008091F00013
:101C2000877F8093F00078940E94310E1092E90033
:101C30008091F00088608093F000C093E900FF91EC
:101C4000EF91CF91BF91AF919F918F917F916F91C4
:101C50005F914F913F912F910F900FBE0F901F906A
:101C600018951F93CF93DF93CDB7DEB7AA970FB622
:101C7000F894DEBF0FBECDBFE5EFF1E08091F1003B
:101C8000819321E0ED3FF207C9F70E94B9098091E5
:101C9000E80083FF1CC12091F5013091F601832FEC
:101CA00090E08A30910508F012C1FC01EA5AFF4F1A
:101CB0000C940724203881F0223809F008C1809163
:101CC000F9018F708093E9008091EB0085FB8827F4
:101CD00080F91092E90006C08091F1019091F20123
:101CE000911182609091E800977F9093E800809333
:101CF000F1001092F100C5C0822F8D7F09F0E7C07E
:101D0000222319F0223061F0E2C08091F701813086
:101D100009F0DDC0333009F080E08093F20128C083
:101D20008091F701811124C02091F9012F7009F4ED
:101D3000CEC02093E9008091EB0080FF19C0809114
:101D4000EB00333011F4806211C080618093EB00AE
:101D500081E090E0022E01C0880F0A94EAF7809398
:101D6000EA001092EA008091EB0088608093EB001B
:101D70001092E9008091E800877F86C02111A7C0FA
:101D80001091F7011F778091E3008078812B809379
:101D9000E3008091E800877F8093E8000E94570C61
:101DA0008091E80080FFFCCF8091E3008068809301
:101DB000E300112311F083E001C082E08093F4017D
:101DC00086C02058223008F082C08091F70190919F
:101DD000F8018C3D23E0920779F583E08A838AE25B
:101DE00089834FB7F894DE01139620E03EE051E27C
:101DF000E32FF0E050935700E49120FF03C0E295F9
:101E0000EF703F5FEF708E2F90E0EA3010F0C796D2
:101E100001C0C0968D939D932F5F243149F74FBF2A
:101E20008091E800877F8093E8006AE270E0CE014D
:101E300001960E945F0B14C0AE014F5F5F4F60912F
:101E4000F9010E94A70A009709F441C02091E80017
:101E5000277F2093E800BC0189819A810E94C00BF2
:101E60008091E8008B778093E80031C0203879F5C5
:101E70008091E800877F8093E8008091F001809353
:101E8000F1008091E8008E778093E8000E94570C63
:101E90001EC021111CC09091F7019230C0F48091B6
:101EA000E800877F8093E8009093F0010E94570C30
:101EB0008091F001811104C08091E30087FF02C08E
:101EC00084E001C081E08093F4010E94A509809123
:101ED000E80083FF0AC08091E800877F8093E800D4
:101EE0008091EB0080628093EB00AA960FB6F89485
:101EF000DEBF0FBECDBFDF91CF911F910895089532
:101F0000CF938091F4018823B1F08091E9008F7024
:101F10009091EC0090FF02C090E801C090E0C92FC2
:101F2000C82B1092E9008091E80083FD0E94310ED9
:101F3000CF70C093E900CF9108959093750180937D
:101F400074010895E0917401F0917501309721F0CA
:101F50000190F081E02D099480E00895E0917401F2
:101F6000F0917501309721F00280F381E02D099402
:101F70000895E0917401F0917501309721F004808B
:101F8000F581E02D0994089520917201309173013B
:101F90008217930771F09093730180937201E0911F
:101FA0007401F0917501309721F00680F781E02DE2
:101FB000099408952091700130917101821793075F
:101FC00071F09093710180937001E0917401F09130
:101FD0007501309721F00084F185E02D0994089572
:101FE00008950C94F00F0E94651C0E9407040C9445
:101FF000291D9F92AF92BF92CF92DF92EF92FF92F4
:102000000F931F93CF93DF9300D000D000D0CDB7B4
:10201000DEB70E941F0485E8E82E81E0F82E0DE06F
:1020200010E0CC24C394D12C902E802F0E940C055C
:10203000F701B2907F01B826A1F401501109A0F771
:102040008FEF89838A831B820E946E1C8160782FA8
:102050009D838C8349815A816B818D810E9493106D
:1020600031C09091DF0191FF04C08E830E94120560
:102070008E8125E030E0A601022E01C0440F0A94B3
:10208000EAF7A42E4B21D1F029839A828A2191E08C
:1020900009F490E09B830E946E1C8160782F9D83E1
:1020A0008C8349815A816B818D810E949310F80144
:1020B000E958FE4F80818A25808304C02150310970
:1020C000D0F6BBCF0E940D20109176010E94A20F86
:1020D0001817B9F00E94A20F8093760126960FB6CA
:1020E000F894DEBF0FBECDBFDF91CF911F910F914E
:1020F000FF90EF90DF90CF90BF90AF909F900C94A7
:10210000B00826960FB6F894DEBF0FBECDBFDF91A4
:10211000CF911F910F91FF90EF90DF90CF90BF90E4
:10212000AF909F900895CF93DF93CDB7DEB72B97F5
:102130000FB6F894DEBF0FBECDBF4F8358876987B7
:102140007A878B87DE01119686E0FD0111928A95D0
:10215000E9F785E0FE01379601900D928A95E1F747
:1021600049815A816B817C818D819E810E944C17AF
:102170002B960FB6F894DEBF0FBECDBFDF91CF9187
:102180000895CF93C82F882309F4C1C0823859F429
:102190000E94A20F81FDBBC089E30E94911A0E9498
:1021A000681B89E30CC0833879F40E94A20F80FD7C
:1021B000AEC083E50E94911A0E94681B83E50E94CD
:1021C000D11ACF910C94681B843859F40E94A20F45
:1021D00082FD9DC087E40E94911A0E94681B87E4DB
:1021E000EECF8CEF8C0F813A48F48C2F0E9439226D
:1021F00081118DC08C2F0E94911AE3CF80E28C0F49
:10220000883048F4C77081E001C0880FCA95EAF7AA
:102210000E94151BD6CF8BE58C0F833078F4C53A1E
:1022200029F0C63A31F482E890E005C081E890E0F8
:1022300002C083E890E0CF910C94C40F88E58C0F26
:10224000833108F064C0C83A39F1C93A41F1CA3A59
:1022500049F1CB3A51F1CC3A59F1CD3A61F1C03B59
:1022600069F1CE3A71F1CF3A79F1C13B81F1C23BCC
:1022700089F1C33B91F1C43B99F1C53BA1F1C63B48
:10228000A9F1C73BB1F1C83BB9F1C93BC1F1CA3BA8
:10229000C9F58AE292E038C082EE90E035C089EE5E
:1022A00090E032C08AEE90E02FC085EB90E02CC029
:1022B00086EB90E029C087EB90E026C08CEC90E0A4
:1022C00023C08DEC90E020C083E891E01DC08AE837
:1022D00091E01AC082E991E017C084E991E014C04E
:1022E00081E292E011C083E292E00EC084E292E0CB
:1022F0000BC085E292E008C086E292E005C087E26A
:1023000092E002C080E090E0CF910C94DA0FCF9180
:102310000895882309F44BC0823859F40E94A20F13
:1023200081FF45C089E30E94911A0E94681B89E3DE
:102330000CC0833871F40E94A20F80FF38C083E57F
:102340000E94911A0E94681B83E50E94D11A0C9486
:10235000681B843859F40E94A20F82FF28C087E4CA
:102360000E94911A0E94681B87E4EFCF9CEF980FA0
:10237000913A58F390E2980F983050F4877091E0BA
:1023800001C0990F8A95EAF7892F0E941B1BDFCFA6
:102390009BE5980F933020F480E090E00C94C40FFC
:1023A000885A833120F480E090E00C94DA0F08958D
:1023B000882321F00E94151B0C94681B0895882324
:1023C00021F00E941B1B0C94681B08958F929F9212
:1023D000AF92BF92CF92DF92EF92FF920F931F9333
:1023E000CF93DF934C01A62EC72FFC01E280D5814D
:1023F000D295DF700E942C1A882319F082E00E9487
:102400006F1AE1100E94321B0E948A1A882379F009
:10241000EE2069F080E28A0D883048F082E00E9468
:102420006F1A0E948A1ABB24B394B82601C0B12C3B
:10243000EC2FE295EF70F0E0E05AFF4F0C94072488
:102440008C2F807F1C2F1F70882311F01295107F16
:10245000EE2089F0112309F4C9C180E28A0D883089
:1024600020F4812F0E94151B03C0812F0E94251B81
:102470000E94681BBBC18A2D0E948911112309F497
:10248000CFC180E28A0D883020F4812F0E941B1B6F
:1024900003C0812F0E942B1B0E94681BC1C18C2F7F
:1024A000807F1C2F1F70803211F01295107FAA20A0
:1024B00021F0F1E0AF1639F12FC0EE2091F0DD23CD
:1024C00009F41DC1D13021F4812F0E94451BA8C100
:1024D000D23009F014C10E944E1B812F0E94F919BD
:1024E0000EC1DD2369F0D13041F40E94121B81231B
:1024F00009F496C10E94FC1903C0D23009F490C1BE
:102500000E944E1B02C1EE2021F0D23008F088C19B
:10251000F6C0D11185C1F9C0EE2021F0DD2309F408
:10252000EEC064C1DD2309F4F0C067C12C2F2695ED
:102530002695237030E02115310521F02130310539
:1025400061F06EC1EE2021F08A2D9C2F937002C0A5
:1025500080E090E00E94C40F63C1EE2021F08A2D3C
:102560009C2F937002C080E090E00E94DA0F58C167
:102570008A2DEE2019F00E94151F02C00E947D1FB7
:102580000E9402204DC18C2F837009F04EC0E110D3
:1025900047C12A2D229526952770220F220F8A2DBA
:1025A0008F70C82ED12CE12CF12C022E04C0CC0C43
:1025B000DD1CEE1CFF1C0A94D2F7A4FE10C06FE0D5
:1025C00070E080E090E004C0660F771F881F991FBD
:1025D0002A95D2F7609570958095909503C060E03C
:1025E00070E0CB012C2F26952695237030E0223009
:1025F000310569F02330310589F06C297D298E2958
:102600009F292130310571F00E949E1809C16C2963
:102610007D298E299F290E94B81802C10E949E1808
:10262000C701B6010E948418FBC0EE2019F08C2F60
:10263000817001C08695882309F4F2C02A2D229565
:1026400026952770220F220F8A2D8F70C82ED12C2D
:10265000E12CF12C022E04C0CC0CDD1CEE1CFF1C66
:102660000A94D2F7A4FE10C06FE070E080E090E022
:1026700004C0660F771F881F991F2A95D2F76095AF
:1026800070958095909503C060E070E0CB012C2F91
:1026900026952695237030E02230310569F02330ED
:1026A000310589F06C297D298E299F29213031053A
:1026B00071F00E947219B4C06C297D298E299F295E
:1026C0000E948C19ADC00E947219C701B6010E9408
:1026D0005819A6C00A2D10E0F801E05EF109E531B5
:1026E000F10508F07EC0E059FF4F0C9407241A2D25
:1026F0001F708C2F8F71EE2031F00E94F118812F06
:102700000E94D8118DC00E941219812F0E94DF11E2
:1027100087C0EE2039F0D11183C08C2F8F710E94B9
:1027200037197EC0D23008F07BC0F7CFEE2039F0E9
:102730008C2F8F710E94F11873C0EE20C9F38C2F7B
:102740008F710E9412196CC0EE2029F08C2F8F71AE
:102750000E94DC1865C00E94D21862C0EE20B9F059
:102760000E94F6190E941B1B0E94281A843029F42B
:102770000E94681A8C2F8F7164C0D23008F06FC02D
:10278000CF718C2F0E94F11863E08C2F0DC00E9436
:10279000F6190E94151BD230A8F00E94681A0E94F8
:1027A000FC1964E08C2F8F71DF91CF911F910F91F5
:1027B000FF90EF90DF90CF90BF90AF909F908F9061
:1027C0000C94581A81E0DF91CF911F910F91FF90E7
:1027D000EF90DF90CF90BF90AF909F908F900C9430
:1027E0006F1AEE2039F0DD2309F4A2CF8A2D0E9462
:1027F000C11016C0DD2309F4A2CF8A2D0E948911D1
:102800000FC04C2F4F706A2DC4010E94A2020E947B
:10281000F91706C04C2F4F706A2DC4010E94C205E3
:10282000BB20E9F00E94281A80FD19C0F401128231
:102830000E94221A0E94F118C4010E943C140E94B6
:10284000221ADF91CF911F910F91FF90EF90DF90AF
:10285000CF90BF90AF909F908F900C941219DF9102
:10286000CF911F910F91FF90EF90DF90CF90BF908D
:10287000AF909F908F9008950F931F93CF93DF9306
:10288000EC01288139818B819C81892B31F03F3F7C
:1028900011F080E003C02F3FE1F781E0811113C008
:1028A000CE010E942E05882371F0688179818A818A
:1028B0000E94F2198C010E94A6190E947918B80191
:1028C000CE010E94E611DF91CF911F910F910895E3
:1028D0000E94321B0E94421B0E94041B0E94681B24
:1028E0000E94AE200E94022080E090E00E94C40F6F
:1028F00080E090E00C94DA0F0E94221B0C94681484
:102900000E94E719292F22952F7030E02C303105D5
:102910004CF42A3031056CF4225031092230310553
:10292000B0F407C02C30310571F02F30310559F06B
:102930000EC0803F31F018F4803E48F402C0843F5E
:1029400031F481E0089593FB882780F9089580E0B1
:102950000895CF93DF9300D000D01F92CDB7DEB79C
:102960000F900F900F900F900F90DF91CF910895DF
:10297000CF93DF9300D000D000D0CDB7DEB726963E
:102980000FB6F894DEBF0FBECDBFDF91CF91089593
:102990001F93CF93DF93C091850116E0809186014C
:1029A000C81799F0D0E01C9FF0011D9FF00D112475
:1029B000E957FE4F40815181628173818481958105
:1029C0000E94B8142196C770E9CFDF91CF911F9173
:1029D00008954091B7015091B8016091B90170918B
:1029E000BA018091BB019091BC010C94B814CF93B3
:1029F0008091BC0182958F7009F05FC08091B90110
:102A0000882309F45AC020918501A0918601609124
:102A1000B7017091B8018091BA019091BB0131E08A
:102A20006F3F09F030E0B32FC6E02A1709F445C024
:102A3000009721F07F3F21F44B2F03C041E001C0FC
:102A400040E030E040FD35C0C29FF001C39FF00D73
:102A50001124E957FE4F418174132BC04081641348
:102A600028C04281411125C043815481481759072C
:102A700010F441505109481B590B483C5105C8F40A
:102A80008091BC018F7080618093BC0186E0829F41
:102A9000F001839FF00D1124E457FE4F80818F7069
:102AA0008061808387EB91E00E943C14CF910C946D
:102AB000C8142F5F3F4F2770B8CFCF910895CF92A2
:102AC000DF92EF92FF920F931F93CF93DF93CDB7D7
:102AD000DEB762970FB6F894DEBF0FBECDBF8C0194
:102AE00085E0F801DE011D9601900D928A95E1F7CF
:102AF000D8014C9111965C91119712966C91129796
:102B00001396ED90FC9014977091B701E091B80185
:102B10002091BA013091BB012115310531F0EF3F11
:102B200031F481E07F3F19F403C081E001C080E00F
:102B3000B82FB170CB2E80FD6CC1D090B901DD20D3
:102B400009F4F5C0F091BC01E216F30638F0C701B4
:102B5000821B930B883C910548F09BC020953095D3
:102B60002E0D3F1D283C310508F093C08F2F807F2C
:102B700009F052C0E51314C0741312C0D62E6111AF
:102B80000FC0FF70F061F093BC010E94E91487EB65
:102B900091E00E943C148091BC01F80185836CC1D6
:102BA000EF2831F05F3F31F481E04F3F19F403C06B
:102BB00081E001C080E080FD03C081E0862701C084
:102BC00080E0F82FF170FF2E80FF1CC080918501FE
:102BD0002091860136E0821709F428C190E0389FE1
:102BE000F001399FF00D1124E957FE4F7181571301
:102BF00006C07081471303C07281671303C001963A
:102C00008770E9CFD62E662309F436C18091BC01C6
:102C100081608093BC0153C0E51308C0741306C0E3
:102C2000611104C0D8011596FC93AEC04D875E8734
:102C30008D859E856A8B0E9480146A89882329F17C
:102C4000D62E662311F12091BC01822F82958F70C0
:102C500090E002970CF460C08091B7019091B801A8
:102C600098878F831986FB86EA862C87CE01079684
:102C700051C0E51731F14D875E878D859E856A8B42
:102C80000E9480146A8981112EC0C8010E943C14E0
:102C9000A4C08F2F807F69F77E2DF98AE88A898901
:102CA0000E94A91487EB91E00E943C14E7EBF1E04D
:102CB00086E0DF011D928A95E9F70E94E914D12C84
:102CC000DBC07413D8CF6111D6CFD8011596FC9311
:102CD000C8010E943C14E7EBF1E086E0DF011D92A1
:102CE0008A95E9F7C9C0D62E662379F22091BC01F6
:102CF000822F82958F7090E0029774F08091B701D7
:102D00009091B8019A8389831B82FD82EC822E8385
:102D1000CE0101960E943C1486E0F801A7EBB1E0D9
:102D200001900D928A95E1F70E94F7146FC0E216A8
:102D3000F30628F0C701821B930B9C0104C0209569
:102D400030952E0D3F1D283C310508F052C0D62E7F
:102D5000662309F49ACFE5132CC074132AC080911E
:102D6000BC0180FD1DC0982F92959F70C9F0D801BD
:102D700015968C9315979F3039F09F5F9295907FB1
:102D80008F70892B15968C93C8010E943C1486E0A5
:102D9000F801A7EBB1E001900D928A95E1F736C0FA
:102DA00086E0F801A7EBB1E001900D928A95E1F77A
:102DB00063C04D875E878D859E850E948014882321
:102DC00079F086E0F801A7EBB1E001900D928A95C9
:102DD000E1F70E94F7140E94E914DD24D3944CC05B
:102DE0008091BC0181608093BC01C8010E943C14A9
:102DF00043C07E2DF98AE88A89890E94A914E7EBED
:102E0000F1E086E0DF011D928A95E9F70E94E9145E
:102E100033C0662309F439CF4D875E878D859E8543
:102E20000E948014882309F430CFCBCF4D875E8772
:102E30008D859E850E94E719292F22952F7030E0FD
:102E4000223031052CF49F7041F0811106C00CC076
:102E5000243031052CF49F7049F4805E883020F0D6
:102E6000C8010E943C14CF2CDC2C06C0D80115965A
:102E70009C91907F91F7F8CF8D2D62960FB6F894C4
:102E8000DEBF0FBECDBFDF91CF911F910F91FF909D
:102E9000EF90DF90CF9008951F93CF93DF93CDB73E
:102EA000DEB72C970FB6F894DEBF0FBECDBF4F83B1
:102EB000588769877A878B879C87CE0107960E94FF
:102EC0005F158823C1F02F8138858A859B85892BE2
:102ED00031F03F3F11F080E003C02F3FE1F781E088
:102EE000811147C04F81588569857A858B859C857E
:102EF0000E94B8143EC086E0FE013796DE011196AE
:102F000001900D928A95E1F7FF81E8854A855B85FE
:102F10004115510531F0EF3F31F481E0FF3F19F4E5
:102F200003C081E001C080E080FD23C020918601C4
:102F300030E0C9010196877099276091850170E0A2
:102F400086179707F1F1F983EA835D834C8396E056
:102F5000929FD001939FB00D1124A957BE4FFE013F
:102F6000319601900D929A95E1F7809386010E9427
:102F7000C81416E08091850190918601891779F136
:102F8000189FC001112489579E4F0E945F15882306
:102F900031F1E09185011E9FF0011124E957FE4FA8
:102FA0004081518162817381848195810E94B8142E
:102FB0008091850190E00196877099278093850123
:102FC000D9CF0E947C141092860110928501E7EB04
:102FD000F1E086E0DF011D928A95E9F7CACF2C96D1
:102FE0000FB6F894DEBF0FBECDBFDF91CF911F911A
:102FF0000895EF92FF920F931F93CF93DF93FC01FD
:10300000009709F46FC0F12CEE24E394EF012196B0
:103010008491843740F4843008F055C0813081F0C9
:10302000823021F15FC0853709F447C0C0F19CE7C9
:10303000980F903708F056C08F770E94891145C0CD
:103040008F010E5F1F4FFE01849190E2980F983020
:1030500050F48770FE2D01C0FF0F8A95EAF78F2F7D
:103060000E94351B15C00E94C11014C08F010E5F55
:103070001F4FFE01849190E2980F983068F487709A
:10308000FE2D01C0FF0F8A95EAF78F2F0E943B1B90
:103090000E94681BE80119C00E948911FBCFCF0173
:1030A0000296FE01C491CC2361F0EFE9FFE0319775
:1030B000F1F700C00000C150F6CFCF010296FE012B
:1030C000F490EC0102C00E94C1108F2D882341F0C2
:1030D000EFE9FFE03197F1F700C000008150F6CF33
:1030E000FE0194CFDF91CF911F910F91FF90EF9050
:1030F000089508956093C1017093C2018093C30144
:103100009093C4010C9468140F931F930091C10114
:103110001091C2012091C3013091C401062B172BDD
:10312000282B392B0093C1011093C2012093C301B6
:103130003093C4011F910F910C9468140F931F9347
:103140000091C1011091C2012091C3013091C401CD
:1031500006231723282339230093C1011093C201AA
:103160002093C3013093C4011F910F910C946814F4
:103170000F931F930091C1011091C2012091C301CF
:103180003091C40106271727282739270093C1014A
:103190001093C2012093C3013093C4011F910F917A
:1031A0000C9468141092BD011092BE011092BF01E0
:1031B0001092C0010C94681441E050E060E070E0AF
:1031C00004C0440F551F661F771F8A95D2F740939E
:1031D000BD015093BE016093BF017093C0010C9478
:1031E000681441E050E060E070E004C0440F551FF7
:1031F000661F771F8A95D2F78091BD019091BE011D
:10320000A091BF01B091C001842B952BA62BB72BA9
:103210008093BD019093BE01A093BF01B093C00104
:103220000C94681441E050E060E070E004C0440F8A
:10323000551F661F771F8A95D2F740955095609568
:1032400070958091BD019091BE01A091BF01B09198
:10325000C00184239523A623B7238093BD019093B7
:10326000BE01A093BF01B093C0010C94681441E06B
:1032700050E060E070E004C0440F551F661F771FE8
:103280008A95D2F78091BD019091BE01A091BF01B6
:10329000B091C00184279527A627B7278093BD0149
:1032A0009093BE01A093BF01B093C0010C94681429
:1032B0000F931F930091BD011091BE012091BF019A
:1032C0003091C001062B172B282B392B0093BD0101
:1032D0001093BE012093BF013093C0011F910F9145
:1032E0000C9468140F931F930091BD011091BE01BF
:1032F0002091BF013091C0010623172328233923D1
:103300000093BD011093BE012093BF013093C00113
:103310001F910F910C9468140F931F930091BD019E
:103320001091BE012091BF013091C00106271727DF
:10333000282739270093BD011093BE012093BF01B8
:103340003093C0011F910F910C9468140895CF928F
:10335000DF92EF92FF920F931F93CF93DF93EC01D5
:10336000C090C101D090C201E090C301F090C401AF
:103370008091BD019091BE01A091BF01B091C001AB
:10338000C82AD92AEA2AFB2A0FE110E0B701A601D0
:10339000002E04C076956795579547950A94D2F705
:1033A00040FD05C00150110988F780E007C0BE014B
:1033B000802F0E9415080197A9F3802FDF91CF91EC
:1033C0001F910F91FF90EF90DF90CF900895CF93D2
:1033D000DF93EC010E94A719BE010E941508DF913E
:1033E000CF910895CB010E94E71908958091CA01F9
:1033F00008958093CA0108951092CA0108950E9409
:103400006E1C2091C8013091C9018217930750F0BA
:103410000E946E1C2091C8013091C901821B930B40
:103420009C010AC00E946E1C2091C8013091C90104
:1034300020953095280F391F81E0283B3B4008F448
:1034400080E008958091C7018595859585950895BB
:103450008091C701877008950E946E1C2091C5015C
:103460003091C6018217930768F00E946E1C20916C
:10347000C5013091C601821B930B883B9B4078F4B9
:1034800080E014C00E946E1C2091C5013091C601DD
:1034900020953095280F391F283B3B4088F38091B9
:1034A000C70182FB882780F991E089278170089500
:1034B00098E0899F90011124622B6093C7010E94BC
:1034C000F1180E946E1C9093C6018093C501089567
:1034D0001092C7011092C6011092C5010895409143
:1034E000C701809584238093C701982F977089F432
:1034F00050E0282F332727FD30954217530749F016
:103500008595859585950E9412191092C601109295
:10351000C50108959091C701977081E009F480E09A
:10352000089590910C019923D9F090910D01992360
:10353000B9F0982F9695969596959F3088F5E091DD
:103540000E01F0910F01E90FF11D877021E030E0CD
:1035500001C0220F8A95EAF78181822B8183089529
:1035600040910E0150910F0120E030E09FEFFA01F1
:10357000E20FF31F6281681799F09F3F19F4611100
:1035800001C0922F2F5F3F4F2E30310581F79F3FB3
:1035900039F0FA01E90FF11D97FDFA95828308953C
:1035A000089590910C019923E1F090910D019923D8
:1035B000C1F0982F9695969596959F3020F5E091BD
:1035C0000E01F0910F01E90FF11D877021E030E04D
:1035D00001C0220F8A95EAF7209581812823218353
:1035E000089540910E0150910F0120E030E0FA0162
:1035F000E20FF31F9281981301C012822F5F3F4F99
:103600002E303105A1F7089581E090E0E0910E01A0
:10361000F0910F01E80FF91F10820196803191059A
:10362000A9F708958091DE0108959091DE01982B0D
:103630009093DE01089580959091DE0198239093F8
:10364000DE0108951092DE0108959091DD01982B1E
:103650009093DD01089580959091DD0198239093DA
:10366000DD0108951092DD0108959091DC01982B01
:103670009093DC01089580959091DC0198239093BC
:10368000DC0108951092DC0108958093CB010E9423
:103690006E1C9093C9018093C80108951092CB01CC
:1036A0001092C9011092C801089540910E015091E5
:1036B0000F0120E030E080E0FA01E20FF31F91817A
:1036C00091118F5F2F5F3F4F2F303105A9F708957C
:1036D000E0910E01F0910F018091DE018083E09175
:1036E0000E01F0910F0180819091DD01892B808383
:1036F000E0910E01F0910F0180819091DC01892B06
:1037000080838091CB01882399F00E94FF19811159
:103710000E944E1BE0910E01F0910F01808190916B
:10372000CB01892B80830E94551B81110E944E1B67
:1037300080910E0190910F010C94AE0F40E0009724
:1037400039F09C0121503109822393234F5FF7CF39
:10375000842F0895CF92DF92EF92FF920F931F93E1
:103760006C01EE24FF24C114D104E104F10421F41E
:103770006B017C0180E001C080E133272F2D1E2DDD
:103780000D2D011511052105310519F0885F68011E
:10379000790197018601A4E036952795179507953D
:1037A000AA95D1F7011511052105310519F08C5F96
:1037B0006801790197018601F2E036952795179502
:1037C0000795FA95D1F7011511052105310519F075
:1037D0008E5F68017901B701A601769567955795C7
:1037E0004795452B462B472B09F08F5F1F910F9173
:1037F000FF90EF90DF90CF9008958091F401843096
:1038000021F11092E00120E488E190E00FB6F894F5
:10381000A895809360000FBE2093600080E00E9416
:10382000B00883B7817F846083BF83B7816083BF23
:103830007894889583B78E7F83BF88E10FB6F8941C
:1038400080936000109260000FBE0895089508955F
:103850000E94261C0E941F040E94271C0E94130520
:1038600091E0811101C090E0892F08950E947C149D
:103870000E94A20F0C94B0081F920F920FB60F92E5
:1038800011248F939F93AF93BF938091E001811197
:1038900013C08091E1019091E201A091E301B09108
:1038A000E4014196A11DB11D8093E1019093E201D5
:1038B000A093E301B093E401BF91AF919F918F91E9
:1038C0000F900FBE0F901F90189582E084BD93E07B
:1038D00095BD9AEF97BD80936E0008952FB7F89429
:1038E0008091E1019091E201A091E301B091E401A6
:1038F0002FBF0895CF92DF92EF92FF920F931F9305
:103900002FB7F8944091E1015091E2016091E301F9
:103910007091E4012FBF6A017B01EE24FF248C012A
:1039200020E030E0C016D106E206F30610F4415064
:103930005109481B590BCA011F910F91FF90EF903D
:10394000DF90CF9008951F920F920FB60F9211241F
:103950008F939F93AF93BF938091E1019091E20188
:10396000A091E301B091E4010196A11DB11D8093E6
:10397000E1019093E201A093E301B093E401BF91D0
:10398000AF919F918F910F900FBE0F901F90189540
:103990000E94A80CF8942FEF87EA91E6215080400E
:1039A0009040E1F700C0000087E090EBDC018093DD
:1039B000FE019093FF01A0930002B09301022CE05E
:1039C00088E190E00FB6F894A895809360000FBE50
:1039D00020936000FFCFEF92FF920F931F93CF933E
:1039E000DF93E82E8DE0F82E8F2D0E940C05C5E0A8
:1039F000D0E0082F10E098010C2E02C035952795D5
:103A00000A94E2F720FF09C06C2F7F2D80E00E940E
:103A1000C305E81202C081E007C0219760F7FA945D
:103A20008FEFF812E1CF80E0DF91CF911F910F91DE
:103A3000FF90EF900895CF93C82F8CE20E94EB1C6B
:103A4000882321F08C2FCF910C94EB1C80E0CF9138
:103A50000895CF930E946E1E811102C00E94541ED1
:103A6000C5E6C15049F00E941F048FE39CE901970D
:103A7000F1F700C00000F5CF89E20E941B1D811103
:103A800011C18AE20E941B1D81110E94541E85E013
:103A90000E941B1D81110E94C81C0E94791E8093E8
:103AA000DF0187E00E941B1D882399F18BE10E94B2
:103AB0001B1D882351F09091DF0191FB882780F92D
:103AC00021E0822780FB91F922C08EE00E941B1D1D
:103AD000882351F09091DF0192FB882780F921E043
:103AE000822780FB92F913C080E10E941B1D9091F8
:103AF000DF01882341F093FB882780F921E08227AA
:103B000080FB93F904C0892F809580FB90F99093F6
:103B1000DF018091DF010E947D1E0E948B1E809339
:103B2000FD0180EE0E941B1D882341F08091FD0164
:103B3000982F909590FB80F98093FD0189E30E9476
:103B40001B1D882359F09091FD0191FB882780F976
:103B500021E0822780FB91F99093FD0182EE0E9483
:103B60001B1D882359F09091FD0192FB882780F955
:103B700021E0822780FB92F99093FD0186EE0E945E
:103B80001B1D882359F09091FD0193FB882780F934
:103B900021E0822780FB93F99093FD0183EE0E9440
:103BA0001B1D882359F09091FD0194FB882780F913
:103BB00021E0822780FB94F99093FD0185E30E9428
:103BC0001B1D882359F09091FD0195FB882780F9F2
:103BD00021E0822780FB95F99093FD0181E30E940B
:103BE0001B1D882359F09091FD0196FB882780F9D1
:103BF00021E0822780FB96F99093FD0181E10E94EC
:103C00001B1D882359F09091FD0197FB882780F9AF
:103C100021E0822780FB97F99093FD018091FD01BF
:103C20000E948F1E8091FD0187FB882780F9809379
:103C30000D0187E20E941B1DC82F8EE10E941B1DF3
:103C40008111C2608FE10E941B1D8111C46080E25E
:103C50000E941B1D8111C86081E20E941B1D811101
:103C6000C06182E20E941B1D8111C06283E20E943A
:103C70001B1D8111C06484E20E941B1D882311F06A
:103C8000C06802C0CC2329F08C2F0E94861E6C2FA6
:103C900003C00E94821E682F70E080E090E0CF9108
:103CA0000C947A18CF9108956DEE7EEF80E090E04D
:103CB0000E94412460E082E090E00E942F2460E0B6
:103CC00083E090E00E942F2460E084E090E00E9476
:103CD0002F2460E085E090E00C942F2480E090E0B9
:103CE0000E94292421E08D3E9E4F09F020E0822F82
:103CF000089582E090E00C942124682F82E090E007
:103D00000C942F2483E090E00C942124682F83E00E
:103D100090E00C942F2484E090E00C942124682FF0
:103D200084E090E00C942F248091E70180FF0BC089
:103D30006091130185E0689FB00111247595679526
:103D4000759567952AC081FF09C06091130185E0D0
:103D5000689FB0011124759567951FC082FF07C049
:103D60006091130185E0689FB001112416C0409155
:103D7000E8014423C9F060911201461788F72091A9
:103D8000130185E0289F90011124429FC001439FA9
:103D9000900D112470E00E94F3236038710540F407
:103DA0006115710539F002C065E070E0862F089555
:103DB0008FE7089581E008958091E70180FF08C0B2
:103DC0006091110170E0759567957595679521C0B3
:103DD00081FF06C06091110170E07595679519C06B
:103DE00082FF04C06091110170E010C08091E80171
:103DF0008823C1F0609110018617A0F790911101FE
:103E0000989FC001112470E00E94F323603871056F
:103E100028F46115710521F0862F08958FE7089524
:103E200081E0089561E070E0F4CF803F21F40E94CA
:103E3000941E819504C0813F29F40E94941E8093B2
:103E4000EB010895823F21F40E94941E819504C0E5
:103E5000833F29F40E94941E8093EA010895893FCC
:103E600019F40E94DC1E05C08A3F31F40E94DC1E5A
:103E700081958093EC0108958B3F21F40E94DC1E14
:103E8000819504C08C3F29F40E94DC1E8093ED01D3
:103E90000895843F21F48091E901816017C0853F36
:103EA00021F48091E901826011C0863F21F4809164
:103EB000E90184600BC0873F21F48091E9018860AB
:103EC00005C0883F31F48091E90180618093E90168
:103ED00008958D3F21F48091E70181600BC08E3FF2
:103EE00021F48091E701826005C08F3F29F4809121
:103EF000E70184608093E7010895803F39F4809161
:103F0000EB0187FF6CC01092EB0169C0813F29F47F
:103F10008091EB011816BCF362C09091EA01823FD8
:103F200029F497FF5CC01092EA0159C0833F19F44D
:103F30001916CCF354C0893F41F48091EC01181656
:103F40000CF04DC01092EC014AC08A3F29F48091D8
:103F5000EC0187FF44C0F6CF8B3F39F48091ED012F
:103F600087FF3DC01092ED013AC08C3F29F480914B
:103F7000ED011816BCF333C0843F21F48091E901B0
:103F80008E7F17C0853F21F48091E9018D7F11C09C
:103F9000863F21F48091E9018B7F0BC0873F21F49C
:103FA0008091E901877F05C0883F31F48091E90164
:103FB0008F7E8093E90113C08D3F21F48091E7014A
:103FC0008E7F0BC08E3F21F48091E7018D7F05C06D
:103FD0008F3F29F48091E7018B7F8093E7018091E7
:103FE000EA0181110EC08091EB0181110AC080911C
:103FF000EC01811106C08091ED01811102C0109287
:10400000E801089589EE91E00E94B90F0E946E1CAC
:104010009093E6018093E50108951F93CF93DF937A
:104020008091E5019091E6010E947A1C4091E8019F
:10403000442321F02091140130E006C020911501A5
:104040005AE0259F900111248217930708F482C03B
:104050008091EA011091EB01D091EC01C091ED014A
:10406000811107C0111105C0D11103C0CC2309F47F
:1040700071C04F3F19F04F5F4093E801181624F4C8
:104080000E94941E8093EA018091EA0187FF05C097
:104090000E94941E81958093EA01111624F40E94D7
:1040A000941E8093EB018091EB0187FF05C00E9475
:1040B000941E81958093EB016091EA01662339F1AA
:1040C0001091EB01112319F1772767FD7095872F68
:1040D000972F0E94042323E333E343E35FE30E942B
:1040E00068230E94D1226093EA01612F772767FD40
:1040F0007095872F972F0E94042323E333E343E334
:104100005FE30E9468230E94D1226093EB011D1699
:1041100024F40E94DC1E8093EC018091EC0187FF67
:1041200005C00E94DC1E81958093EC011C1624F4CE
:104130000E94DC1E8093ED018091ED0187FF05C098
:104140000E94DC1E81958093ED01DF91CF911F913C
:104150000C940220DF91CF911F910895E9EEF1E0D8
:1041600085E0DF011D928A95E9F71092E80110922F
:10417000E7010895833081F128F4813059F08230CD
:10418000D1F00895853009F449C0B8F1863009F4BA
:1041900056C0089520911501862F90E0820F911D41
:1041A0008F3F910520F4620F6093150108958FEF02
:1041B00080931501089520911401862F90E0820FBD
:1041C000911D8F3F910520F4620F609314010895B3
:1041D0008FEF80931401089520911301862F90E0B2
:1041E000820F911D8F3F910520F4620F60931301A0
:1041F00008958FEF80931301089520911201862F67
:1042000090E0820F911D8F3F910520F4620F609323
:10421000120108958FEF80931201089520911101EA
:10422000862F90E0820F911D8F3F910520F4620F41
:104230006093110108958FEF8093110108952091EB
:104240001001862F90E0820F911D8F3F910520F481
:10425000620F6093100108958FEF8093100108950D
:10426000833011F128F4813049F0823091F00895C3
:10427000853081F120F18630C1F1089580911501DA
:10428000681720F4861B809315010895109215017C
:10429000089580911401681720F4861B80931401FF
:1042A000089510921401089580911301681720F465
:1042B000861B809313010895109213010895809135
:1042C0001201681720F4861B809312010895109242
:1042D0001201089580911101681720F4861B8093C4
:1042E000110108951092110108958091100168172D
:1042F00020F4861B809310010895109210010895F8
:104300008B3109F46AC008F58E3009F470C070F47E
:10431000873009F452C018F48630B9F134C08830BF
:1043200009F4A1C08B3009F49EC02DC0813109F47D
:1043300079C020F4803109F464C025C0863109F4C5
:1043400092C0893109F48FC01EC0853309F483C03F
:1043500060F4873209F47FC020F48E3108F06DC01C
:1043600012C0893209F477C00EC0833438F48A331E
:1043700008F061C0883309F476C005C0833409F4BD
:104380006AC0883461F080E008958091DF01817F08
:104390008E7F8093DF0181E08093EF0108950E947A
:1043A0007C142FEF83ED90E3215080409040E1F7A3
:1043B00000C000000E94C81C56C09091DF01892FE8
:1043C0008095817080FB90F919F09660986027C005
:1043D000997F977F9093DF0146C09091DF0191FB19
:1043E000882780F921E0822780FB91F913C0909102
:1043F000DF0192FB882780F921E0822780FB92F978
:1044000009C09091DF0193FB882780F921E0822782
:1044100080FB93F99093DF01882329F191609093B9
:10442000DF0108950E947C1480910D0191E089279D
:1044300080930D0118C027EC01C023EE280F61E026
:1044400070E080E090E004C0660F771F881F991F1E
:104450002A95D2F704C061E070E080E090E00E940D
:104460007A180E947C1481E0089580E0089580E02D
:104470000895CF93C82F8091EF01813079F018F023
:104480008230D1F184C0A0910E01B0910F018C91C6
:10449000813169F0823209F07CC009C0A0910E011F
:1044A000B0910F018C91813111F0823249F48C2F3F
:1044B0000E94352281111DC08C2F0E9480211AC0BC
:1044C0008C2F0E943722811114C0C43179F048F436
:1044D000CB3079F0C03109F060C082E08093EF0109
:1044E00008C0C93219F0C83321F057C01092EF014B
:1044F00054C081E0817053C0C93289F118F5C431CC
:1045000071F1A8F4C73009F046C08AE08093150124
:1045100094E19093140193E090931301809312011E
:1045200088E08093110188E28093100134C0CE515D
:10453000C63088F5EC2FF0E0E65DFE4F8081809379
:10454000EE0129C0CE34E9F020F4CB3421F56AE045
:1045500013C0C13579F0C235F1F461E00DC080912E
:10456000EE01882319F01092EE0115C081E08093CE
:10457000EF0115C061E006C08091EE010E94BA20F3
:104580000AC06AE08091EE010E94302104C01092BE
:10459000EF0180E004C081E002C080E0ABCFCF91AA
:1045A000089504D06894B1118DC0089570D088F03A
:1045B0009F5790F0B92F9927B751A0F0D1F0660F0F
:1045C000771F881F991F1AF0BA95C9F712C0B1302A
:1045D00081F077D0B1E0089574C0672F782F8827D5
:1045E000B85F39F0B93FCCF3869577956795B39569
:1045F000D9F73EF490958095709561957F4F8F4FD8
:104600009F4F0895E89409C097FB3EF490958095DC
:10461000709561957F4F8F4F9F4F9923A9F0F92F88
:1046200096E9BB279395F695879577956795B79506
:10463000F111F8CFFAF4BB0F11F460FF1BC06F5FEC
:104640007F4F8F4F9F4F16C0882311F096E911C0FE
:10465000772321F09EE8872F762F05C0662371F01F
:1046600096E8862F70E060E02AF09A95660F771F33
:10467000881FDAF7880F9695879597F9089557FD63
:104680009058440F551F59F05F3F71F04795880FC0
:1046900097FB991F61F09F3F79F087950895121657
:1046A00013061406551FF2CF4695F1DF08C0161603
:1046B00017061806991FF1CF8695710561050894B4
:1046C0000895E894BB2766277727CB0197F90895CB
:1046D0000BD078C069D028F06ED018F0952309F07F
:1046E0005AC05FC01124EECFCADFA0F3959FD1F36B
:1046F000950F50E0551F629FF001729FBB27F00D90
:10470000B11D639FAA27F00DB11DAA1F649F6627E4
:10471000B00DA11D661F829F2227B00DA11D621F33
:10472000739FB00DA11D621F839FA00D611D221FED
:10473000749F3327A00D611D231F849F600D211DD1
:10474000822F762F6A2F11249F5750408AF0E1F074
:1047500088234AF0EE0FFF1FBB1F661F771F881FBD
:1047600091505040A9F79E3F510570F014C0AACF58
:104770005F3FECF3983EDCF3869577956795B795A8
:10478000F795E7959F5FC1F7FE2B880F911D9695D2
:10479000879597F9089597F99F6780E870E060E042
:1047A00008959FEF80EC089500240A9416161706CA
:1047B00018060906089500240A9412161306140612
:1047C00005060895092E0394000C11F4882352F075
:1047D000BB0F40F4BF2B11F460FF04C06F5F7F4F2D
:1047E0008F4F9F4F089597FB072E16F4009407D024
:1047F00077FD09D00E940D2407FC05D03EF490956A
:1048000081959F4F0895709561957F4F0895EE0FA4
:10481000FF1F0590F491E02D0994AA1BBB1B51E1E9
:1048200007C0AA1FBB1FA617B70710F0A61BB70B20
:10483000881F991F5A95A9F780959095BC01CD01C5
:104840000895F999FECF92BD81BDF89A992780B558
:104850000895A8E1B0E042E050E00C944924262FEE
:10486000F999FECF92BD81BDF89A019700B4021666
:1048700039F01FBA20BD0FB6F894FA9AF99A0FBE14
:1048800008950196272F0E9430240C942F24DC01D8
:10489000CB01FC01F999FECF06C0F2BDE1BDF89A4B
:1048A000319600B40D9241505040B8F70895F894F5
:0248B000FFCF38
:1048B2002002B2083F091C09E808B5080101CC0131
:1048C20028080A03140A404D363977042A04F403EF
:1048D200BB034E0367038003990301020304050629
:0448E20007080900BA
:00000001FF
